:0D006200900011740DF0900012740AF090DF
:0C006F0000137452F09000147420F09004
:0C007B0000157452F09000167465F090AF
:0C00870000177461F09000187464F09091
:0C00930000197420F090001A7442F090E4
:0C009F00001B7452F090001C7454F09090
:0C00AB00001D7420F090001E7452F090B4
:0C00B700001F7465F09000207467F0904A
:0C00C30000217469F09000227473F0902A
:0C00CF0000237474F09000247465F0901D
:0C00DB0000257472F09000267420F09054
:0C00E70000277420F09000287409F090AD
:0C00F30000297409F090002A7420F0909D
:0C00FF00002B7420F090002C7420F09076
:0C010B00002D7400F0900039740DF0908D
:0C011700003A740AF090003B744DF09028
:0C012300003C7420F090003D744DF09002
:0C012F00003E746FF090003F7464F0908C
:0C013B0000407469F09000417466F09080
:0C01470000427479F09000437420F090A6
:0C01530000447420F09000457442F090CD
:0C015F0000467452F09000477454F09079
:0C016B0000487420F09000497454F0909B
:0C017700004A7458F090004B7420F09087
:0C018300004C7442F090004D7475F09038
:0C018F00004E7466F090004F7466F09013
:0C019B0000507465F09000517472F090F8
:0C01A70000527420F09000537409F09096
:0C01B30000547409F09000557420F09086
:0C01BF0000567420F09000577420F0905F
:0C01CB0000587400F0900061740DF0907A
:0C01D7000062740AF09000637444F09021
:0C01E30000647420F09000657444F090FB
:0C01EF0000667469F09000677473F09073
:0C01FB0000687470F0900069746CF09063
:0C020700006A7461F090006B7479F09054
:0C021300006C7420F090006D7442F090BC
:0C021F00006E7452F090006F7454F09068
:0C022B0000707420F09000717420F090BE
:0C02370000727454F09000737458F09042
:0C0243000074742FF09000757452F0905D
:0C024F0000767458F09000777420F09056
:0C025B0000787442F09000797475F09007
:0C026700007A7466F090007B7466F090E2
:0C027300007C7465F090007D7472F090C7
:0C027F00007E7420F090007F7444F0902A
:0C028B0000807461F09000817474F090A9
:0C02970000827461F09000837400F0900D
:0C02A3000089740DF090008A740AF0903D
:0C02AF00008B7442F090008C7420F090E2
:0C02BB00008D7444F090008E7469F09087
:0C02C700008F7473F09000907470F09041
:0C02D3000091746CF09000927461F09047
:0C02DF0000937479F09000947420F0906B
:0C02EB0000957442F09000967443F0906F
:0C02F70000977420F0900098746DF09057
:0C03030000997465F090009A7473F090FB
:0C030F00009B7473F090009C7461F090EF
:0C031B00009D7467F090009E7465F090E7
:0C032700009F7473F09000A07420F09010
:0C03330000A17420F09000A27420F09053
:0C033F0000A37420F09000A47420F09043
:0C034B0000A57420F09000A67420F09033
:0C03570000A77420F09000A87400F09043
:0C03630000B1740DF09000B2740AF0902C
:0C036F0000B37458F09000B47420F090BB
:0C037B0000B57453F09000B67474F0905C
:0C03870000B77461F09000B87472F09040
:0C03930000B97474F09000BA7420F0906F
:0C039F0000BB7442F09000BC7452F0905F
:0C03AB0000BD744DF09000BE7420F09076
:0C03B70000BF7442F09000C07443F0904E
:0C03C30000C17420F09000C27420F09083
:0C03CF0000C37420F09000C47420F09073
:0C03DB0000C57420F09000C67420F09063
:0C03E70000C77420F09000C87420F09053
:0C03F30000C97420F09000CA7420F09043
:0C03FF0000CB7420F09000CC7420F09033
:0C040B0000CD7420F09000CE7420F09022
:0C04170000CF7420F09000D07400F09032
:0C04230000D9740DF09000DA740AF0901B
:0C042F0000DB7443F09000DC7420F090BF
:0C043B0000DD7443F09000DE7468F09067
:0C04470000DF7461F09000E0746EF09033
:0C04530000E17467F09000E27465F09026
:0C045F0000E37420F09000E47474F0904E
:0C046B0000E57468F09000E67465F09005
:0C04770000E77420F09000E87442F09060
:0C04830000E97452F09000EA7454F0900C
:0C048F0000EB7420F09000EC7441F09041
:0C049B0000ED7464F09000EE7464F090CA
:0C04A70000EF7472F09000F07465F090AB
:0C04B30000F17473F09000F27473F0908C
:0C04BF0000F37428F09000F47444F090F6
:0C04CB0000F57465F09000F67466F09087
:0C04D70000F77461F09000F87475F0906C
:0C04E30000F9746CF09000FA7474F09052
:0C04EF0000FB743AF09000FC7430F090B8
:0C04FB0000FD7478F09000FE7434F09066
:0C05070000FF7420F09001007400F090E0
:0C0513000101740DF0900102740AF090D8
:0C051F000103744EF09001047420F09071
:0C052B0001057463F09001067468F09004
:0C05370001077461F0900108746EF090F0
:0C05430001097467F090010A7465F090E3
:0C054F00010B7420F090010C7474F0900B
:0C055B00010D7468F090010E7465F090C2
:0C056700010F7420F09001107442F0901D
:0C05730001117443F09001127420F0900C
:0C057F0001137444F09001147461F090BA
:0C058B0001157474F09001167461F0907A
:0C05970001177420F09001187476F090A9
:0C05A30001197461F090011A746CF09062
:0C05AF00011B7475F090011C7465F09045
:0C05BB00011D7473F090011E7420F0907C
:0C05C700011F7420F09001207420F090BF
:0C05D30001217400F0900129740DF090DB
:0C05DF00012A740AF090012B7448F0907F
:0C05EB00012C7420F090012D7444F0905D
:0C05F700012E7469F090012F7473F090D5
:0C06030001307470F0900131746CF090C4
:0C060F0001327461F09001337479F090B6
:0C061B0001347420F09001357454F0900C
:0C06270001367468F09001377469F0909F
:0C06330001387473F09001397420F090CD
:0C063F00013A744DF090013B7465F0909E
:0C064B00013C746EF090013D7475F0905D
:0C065700013E7420F090013F7420F090F0
:0C06630001407420F09001417420F090E0
:0C066F0001427420F09001437420F090D0
:0C067B0001447420F09001457420F090C0
:0C0687000146740DF0900147740AF090D9
:0906930001487400F09007B074F6
:0A069C0011F0A37400F0A37400F045
:0C06A6009007B374C0F0A37403F07582D9
:0806B2002F75830475F000129E
:0206BA003066A8
:0106BC00221B
:0A06BD0075821675837275F08012C5
:0206C70012849B
:0106C900220E
:0806CA009008AE74D2F0A37495
:0C06D20003F0A37400F09008B17401F074
:0A06DE00E4A3F075822F7583047504
:0D06E800F000123984AA82AB83EA7003028D
:0206F50006CA33
:0B06F7009003D2E0FA900000EAF090BF
:0707020007B07400F0A374BE
:0C07090000F0A37400F09007B37401F03E
:0A071500E4A3F075822F75830475CC
:0C071F00F0001230669003D2E0FA8A82EB
:01072B0022AB
:0E072C00AAF0AB83E5829003D3F0A3EBF0A319
:0E073A00EAF09003D67400F09003D77400F03C
:080748009003D7E0FABA0A00A1
:05075000400302076DEB
:0A075500E5022401F582740034006F
:0E075F00F5837430F09003D7EA04F0020748E7
:0E076D009003D77400F09003D3E0FAA3E0FBF2
:03077B00A3E0FCFC
:0B077E009003D6E0FDBD0D0302081E35
:080789009008AE74D6F0A374D1
:0C07910003F0A37400F09008B17401F0B4
:0A079D00E4A3F075822F7583047544
:0E07A700F000C002C003C004123984AD82AE5F
:0D07B50083D004D003D002ED700302077E54
:0E07C2009003D7E0FDE5052502FE7400350327
:0E07D000FF8C009003D6E0F98E828F8388F0B4
:0807DE00E91270A49007B07449
:0A07E600D6F0A37403F0A37400F032
:0C07F0009007B37401F0E4A3F075822FB1
:0C07FC0075830475F000C002C003C00447
:0E080800C005123066D005D004D003D0029097
:0808160003D7ED04F002077E98
:01081E0022B7
:0E081F009003D874E0F0A374FFF0A37400F00F
:0A082D00A37400F075822575837234
:0C08370075F0801212849003DC7400F055
:0A0843009003DCE0F518C374209563
:06084D0018500302092D02
:0A08530075824175837275F0801202
:0B085D001284AB187C007D007E009030
:0E08680004377401F0E4A3F08B828C838DF0D2
:09087600EE121302758244758331
:08087F007275F08012128490E2
:0E08870003D8E0FBA3E0FCA3E0FDA3E0FE909D
:0E0895000437E4F0A3F08B828C838DF0EEC06C
:0E08A30003C004C005C006121302D006D00523
:0A08B100D004D003758244758372F1
:0E08BB0075F080C003C004C005C00612128490
:0E08C900D006D005D004D0038B078C008F82A0
:0E08D7008883C003C004C005C006121C68AFB1
:0E08E50082A883D006D005D004D00379007A13
:0E08F30000900437E4F0A3F08F82888389F030
:0E090100EAC003C004C005C006121302D006EF
:0E090F00D005D004D0039003D8EBF0A3ECF099
:0C091D00A3EDF0A3EEF09003DCE518045D
:04092900F00208438D
:01092D0022A7
:0E092E00AA82AB83ACF0FD9003DEEAF0A3EBEF
:0E093C00F0A3ECF0A3EDF09003DEE0FAA3E0F0
:0E094A00FBA3E0FCA3E0FD74F02503FB7400AA
:0E0958003504FC74003505FD9003DDE0FCEC79
:0D09660075F020A42502FAE50335F0FB90A2
:0E09730003E4EAF0A3EBF09003E2EAF0740470
:0A0981002503A3F07582467583720A
:0E098B0075F080C004121284D0047A007B0044
:0E0999007D009004377401F0E4A3F08C828A94
:0D09A700838BF0EDC002C003C004C0051238
:0C09B4001302D005D004D003D0027582DD
:0A09C0005075837275F080C002C00C
:0E09CA0003C004C005121284D005D004D0036F
:0809D800D0029003E67401F067
:0E09E0009003E6E0FEC374049E5003020B6019
:0A09EE0075824175837275F080C0B8
:0E09F80002C003C004C005C006121284D0065F
:0E0A0600D005D004D003D0027F007800790024
:0E0A14009004377401F0E4A3F08E828F838883
:0E0A2200F0E9C002C003C004C005121302D0E8
:0C0A300005D004D003D002758244758309
:0C0A3C007275F080C002C003C004C00549
:0E0A4800121284D005D004D003D0029003E433
:0E0A5600E0FEA3E0FF78007900900437E4F0A2
:0E0A6400A3F08E828F8388F0E9C002C003C029
:0E0A720004C005121302D005D004D003D00238
:0A0A800075824475837275F080C022
:0E0A8A0002C003C004C005121284D005D004BF
:0A0A9800D003D0029003E77408F0C9
:0E0AA200C004C002C003C0059003E4E0FEA340
:0E0AB000E0FF8E828F83C002C003C004C00529
:0E0ABE00C006C007121C68A882A983D007D00A
:0E0ACC0006D005D004D003D0027A007B009043
:0E0ADA000437E4F0A3F0888289838AF0EBC031
:0E0AE80002C003C004C005C006C007121302FE
:0E0AF600D007D006D005D004D003D002758200
:0A0B04004475837275F080C002C0D2
:0E0B0E0003C004C005C006C007121284D00741
:0E0B1C00D006D005D004D003D0029003E474BC
:0E0B2A00012506F074003507A3F09003E7E004
:0E0B3800FAEA149003E7F09003E7E0FAEAD03F
:0C0B460005D003D002D0046003020AA214
:0C0B52009003E6E0FE9003E6EE04F002E3
:020B5E0009E0AC
:0A0B600075824675837275F080C03F
:0E0B6A0002C003C004C005121284D005D004DE
:0E0B7800D003D0029004377401F0E4A3F08C97
:0C0B8600828A838BF0ED12130275825FEF
:0A0B920075837275F08012128490D2
:050B9C0003E67401F006
:0E0BA1009003E6E0FAC374049A5003020C912C
:0A0BAF0075824175837275F080C0F5
:0D0BB90002121284D0027B007C007D0090AF
:0E0BC60004377401F0E4A3F08A828B838CF074
:090BD400ED1213027582447583D1
:080BDD007275F0801212849081
:0E0BE50003E2E0FAA3E0FB7C007D0090043701
:0E0BF300E4F0A3F08A828B838CF0ED121302E3
:0A0C010075824475837275F080124D
:080C0B0012849003E77408F065
:0E0C13009003E2E0FAA3E0FB8A828B83C0022A
:0E0C2100C003121C68AC82AD83D003D0027EEB
:0E0C2F00007F00900437E4F0A3F08C828D83E8
:0E0C3D008EF0EFC002C003121302D003D002EB
:0A0C4B0075824475837275F080C055
:0E0C550002C003121284D003D0029003E27496
:0E0C6300012502F074003503A3F09003E7E0D2
:0E0C7100FAEA149003E7F09003E7E0FAEA6075
:040C7F0003020C134D
:0C0C83009003E6E0FA9003E6EA04F002B9
:020C8F000BA1B7
:010C91002240
:0E0C9200E5829003E8F09003E8E0FABA44032C
:030CA000020CCF74
:060CA300BA4803020CC96F
:060CA900BA5203020CC365
:060CAF00BA6403020CCF41
:060CB500BA6803020CC93D
:050CBB00BA7202800383
:030CC000020CD251
:060CC30012081F020CD212
:060CC900120062020CD2D1
:030CCF00120F2CD5
:030CD2001206BD4A
:010CD50022FC
:0E0CD6009003ED7400F0A374F5F09003EB743E
:0E0CE40000F0A374F5F09003E9E4F0A3F075BE
:090CF200826D75837275F08012A9
:080CFB0012849003EF7400F075
:0E0D03009003EFE0FAC374039A5003020E2926
:0A0D110075824175837275F080C091
:0D0D1B0002121284D0027B007C007D00904B
:0E0D280004377401F0E4A3F08A828B838CF010
:090D3600ED12130275824475836D
:080D3F007275F080121284901D
:0E0D470003EDE0FAA3E0FB7C007D0090043792
:0E0D5500E4F0A3F08A828B838CF0ED1213027F
:0A0D630075824475837275F08012EA
:080D6D0012849003F07408F0F9
:0E0D75009003EDE0FAA3E0FB9003E9E0FCA39D
:0E0D8300E0FD90059BECF0A3EDF08A828B83DF
:0E0D9100C002C003C004C005121C54D005D01F
:0E0D9F0004D003D0028C068D077800790090F6
:0E0DAD000437E4F0A3F08E828F8388F0E9C053
:0E0DBB0002C003C004C005121302D005D0040C
:0A0DC900D003D002758244758372D6
:0E0DD30075F080C002C003C004C00512128477
:0E0DE100D005D004D003D0029003ED7401259C
:0E0DEF0002F074003503A3F09003E9740425AC
:0E0DFD0004F074003505A3F09003F0E0FAEA6C
:0E0E0B00149003F0F09003F0E0FAEA600302A6
:020E19000D7555
:0C0E1B009003EFE0FA9003EFEA04F0020D
:020E27000D03B9
:0A0E290075829575837275F08012D2
:080E330012849003EF7400F03B
:0E0E3B009003EFE0FAC374039A5003020F2BEA
:0A0E490075824175837275F080C058
:0D0E530002121284D0027B007C007D009012
:0E0E600004377401F0E4A3F08A828B838CF0D7
:090E6E00ED121302758244758334
:080E77007275F08012128490E4
:0E0E7F0003EBE0FAA3E0FB7C007D009004375B
:0E0E8D00E4F0A3F08A828B838CF0ED12130246
:0A0E9B0075824475837275F08012B1
:080EA50012849003F07408F0C0
:0E0EAD009003EBE0FAA3E0FB8A828B83C00285
:0E0EBB00C003121C68AC82AD83D003D0027E4F
:0E0EC900007F00900437E4F0A3F08C828D834C
:0E0ED7008EF0EFC002C003121302D003D0024F
:0A0EE50075824475837275F080C0B9
:0E0EEF0002C003121284D003D0029003EB74F1
:0E0EFD00012502F074003503A3F09003F0E02D
:0E0F0B00FAEA149003F0F09003F0E0FAEA60C6
:040F190003020EAD14
:0C0F1D009003EFE0FA9003EFEA04F0020A
:020F29000E3B7D
:010F2B0022A3
:0A0F2C007582C575837275F080129E
:060F3600128490000B7410
:0A0F3C0001F0A37400F0A37400F0AC
:0A0F460075820175830075F000123A
:060F5000072C90057074EF
:0A0F5600F1F0A37403F0A37400F09F
:0A0F600075820B75830075F0001216
:070F6A0017737582DF758328
:080F71007275F08012128490E9
:0E0F790003F1E0FA7B007C007D00900437E479
:0E0F8700F0A3F08A828B838CF0ED121302909F
:0A0F950003F1E0FAEA7003020FBD59
:030F9F00BA200075
:050FA2004003020FBD39
:0E0FA7009003DDEAF075820075830875F00096
:080FB500740012092E020FCC9A
:0A0FBD007582F375837275F08012DF
:050FC7001284020F2C52
:010FCC002202
:0E7216000D0A436F7265313535334252543ED6
:017224000069
:0E7225000A0D20425254205265676973746549
:0E7233007220436F6E74656E74730D0A200036
:037241000D0A0033
:0272440009003F
:0A7246000A0D20425254205341006B
:0E7250002020205258204275666665720D0A95
:01725E00002F
:0E725F0020205458204275666665720D0A00A4
:0E726D000A0D204D454D4F52592046694C4C9C
:0E727B00494E4720574945544820464F4C4C39
:0C7289004F57494E47204441544120001B
:0E7295000A0D2052656164696E6720626163B4
:0E72A3006B2074686520646174612066726FF0
:0E72B1006D207468652073616D65206C6F63DD
:0672BF006174696F6E00AE
:0E72C500537562204164647265737320232840
:0C72D3003120746F20333120293A200054
:0E72DF000D0A496E70757420726563697665DC
:0672ED0064203A2020009D
:0E72F3000D0A496E7661696420696E707574CB
:0E73010020212121212120456E746572207407
:0E730F00686520537562204164647265737373
:0E731D0020232028203120746F203331297462
:0E732B006F20646973706C6179204461746135
:037339003A2000F7
:04733E00000000004B
:01734200202A
:03000000020008F3
:03005F0002000399
:05000300120FCD80FE8C
:0D0FCD00900405740AF0900406740DF09075
:0C0FDA000407742AF0900408742AF090B8
:0C0FE60004097420F090040A7453F09089
:0C0FF200040B7469F090040C746DF09016
:0C0FFE00040D7470F090040E746CF09000
:0C100A00040F7465F09004107420F09046
:0C1016000411744CF09004127445F0902A
:0C10220004137444F09004147420F09047
:0C102E0004157453F09004167465F090E3
:0C103A0004177471F09004187475F090A5
:0C10460004197465F090041A746EF090A8
:0C105200041B7463F090041C7465F090A3
:0C105E00041D7420F090041E7420F0901B
:0C106A00041F742AF0900420742AF090F7
:0C1076000421740AF0900422740DF09024
:0C10820004237400F0900424740AF09021
:0C108E000425740DF09004267400F0900E
:0E109A0006E37400F0A374F0F09006E57426EF
:0C10A800F0E4A3F09006E77401F07582FC
:0810B4002F75830475F0001292
:0D10BC0028D29005DA7400F0A374F3F090D0
:0E10C90005DC74E8F0A37403F0A37400F0A338
:0E10D7007400F09005E07403F0E4A3F0A3F0C1
:0A10E500A3F075820375830475F013
:0910EF0000121F7775820375835E
:0810F8000475F000122455906C
:0E1100000B2C7400F0A374F1F0900B2E74020F
:0A110E00F075820075830475F0008F
:0A1118001251BC900B557400F090CA
:0E1122000B567405F0E4A3F0A3F0A3F0758261
:081130000075830475F0001244
:0911380054C0900B557401F090B5
:0E1141000B567405F0E4A3F0A3F0A3F0758242
:08114F000075830475F0001225
:0611570054C012006212F8
:09115D0006BD900427E4F0A3F0A4
:0E116600900427E0FAA3E0FBC3EB94014003E2
:031174000211A8BD
:0E1177008A0474F52503FD90059B7434F0A3E3
:0E1185007412F08C828D83C002C003121C54C1
:0E119300D003D00290042774012502F07400EE
:0711A1003503A3F002116603
:0711A800900427E4F0A3F01E
:0E11AF00900427E0FAA3E0FBC3EB9401400399
:0311BD000211E735
:0E11C0008A0474F52503FD8C828D83C002C065
:0E11CE0003121C68D003D00290042774012580
:0B11DC0002F074003503A3F00211AF15
:0811E7009008AE742AF0A37415
:0C11EF0004F0A37400F09008B17401F04B
:0A11FB00E4A3F075822F75830475DC
:0E120500F000123984AA82AB83BA0102800382
:031213000211E7DE
:0D12160090042AE0FA9003F2EAF08A8212B6
:051223000C920211E72E
:0112280022A3
:0E122900AA83E58290042BF0A3EAF090042D36
:0D123700E4F0A3F090042BE0FAA3E0FB909C
:0E1244000D96EAF0A3EBF07582107583271269
:0612520070BDAA82AB830F
:0E12580090042DE0FCA3E0FDC3EC9AED648051
:0C1266008BF063F08095F04003021283CF
:0E12720090042D74012504F074003505A3F0DE
:03128000021258FF
:011283002248
:0E128400AAF0AB83E582900432F0A3EBF0A356
:0E129200EAF0900435E4F0A3F0900432E0FAA4
:0612A000A3E0FBA3E0FC4B
:0E12A600900435E0FDA3E0FE900435740125B0
:0E12B40005F074003506A3F0E5052502FDE502
:0D12C200063503FE8C078D828E838FF0129F
:0812CF0071F6FDBD0002800371
:0312D7000212A65A
:0E12DA00900435E0FDA3E0FE9007B0EAF0A31B
:0E12E800EBF0A3ECF09007B3EDF0A3EEF07581
:0912F600822F75830475F00012CB
:0212FF00306657
:0113010022C9
:0E130200AA82AB83ACF0FD900439EAF0A3EBB5
:0E131000F0A3ECF0A3EDF0900437E0FAA3E0B8
:08131E00FBEA4B6003021362BD
:0E132600900439E0FAA3E0FBA3E0FCA3E0FD95
:08133400900548743DF0A3741C
:0C133C0004F0A37400F090054B7408F05E
:0E134800E4A3F08A828B8312149EE5828583D3
:0C135600F090053DF0A3E5F0F0021392CA
:0E136200900439E0FAA3E0FBA3E0FCA3E0FD59
:0813700090055D743DF0A374CB
:0B13780004F0A37400F08A828B831243
:0E1383001637E5828583F090053DF0A3E5F076
:01139100F06B
:0C13920090053DE0FAA3E0FB9007B0746A
:0A139E003DF0A37404F0A37400F006
:0C13A8009007B3EAF0A3EBF075822F75FC
:0813B400830475F0001230669D
:0113BC00220E
:0E13BD00AAF0AB83E582900543F0A3EBF0A30A
:0E13CB00EAF0900546E4F0A3F0900543E0FA46
:0C13D900A3E0FBA3E0FC900541E0F5233D
:0C13E500A3E0F52490053FE0FFA3E0F832
:0913F100900546E0F521A3E0F5AA
:0413FA0022A921AD56
:0B13FE0022C3E99FED98E43370030266
:02140900149D30
:0C140B00EF24FFF9E834FFFDE9C3952150
:0C141700F9ED9522FDE5012502F9E5053F
:0E1423003503FD8C0689828D838EF01271F6E2
:0E143100F9C002C003C0047D007E007A009066
:07143F000437E523F0A3E5EB
:0C14460024F089828D838EF0EAC002C081
:0E14520003C004C007C000121302D000D00770
:0B146000D004D003D00275823C7583DD
:0C146B007375F080C002C003C004C0070D
:0E147700C000121284D000D007D004D003D0E1
:0C1485000290054674012521F07400352A
:0C14910022A3F0D004D003D0020213F11B
:01149D00222C
:0E149E00AA83E58290054DF0A3EAF090054F79
:0D14AC00E4F0A3F090054DE0FAA3E0FB9002
:0714B900055BEAF0A3EBF074
:0E14C00090055BE0FAA3E0FB53020F7B008A6D
:0E14CE00048B05C3EC940AED64809480400307
:0314DC00021501F5
:0C14DF0090054FE0FCA3E0FDE504245361
:0C14EB00F582E5053405F5838A048B05C5
:0A14F70074302504FCECF002151C13
:0C15010090054FE0FCA3E0FDE50424533E
:0C150D00F582E5053405F58374372502EE
:03151900FAEAF0FB
:0E151C0090055BE0FAA3E0FBEBC4CAC4540FD9
:0E152A006ACA540FCA6ACAFB90055BEAF0A3B6
:0E153800EBF090054FE0FAA3E0FB90054F7436
:0E154600012502F074003503A3F090054FE07C
:0E155400FAA3E0FBC3EA9408EB6480948040A5
:0415620003021575F6
:0D15660090055BE0FAA3E0FBEA4B60030296
:0215730014C0A2
:0E15750090054FE0FAA3E0FB900551EAF0A3C9
:0E158300EBF090054FE4F0A3F090054BE0FA7A
:0E159100A3E0FB900548E0FCA3E0FDA3E0FE14
:08159F00900551E0FFA3E0F804
:0915A70090054FE0F525A3E0F5E5
:0615B00026C3E5259FE5BE
:0C15B60026648088F063F08095F040030C
:0315C20002162AE4
:0A15C500C004C005C006A925AC262D
:0E15CF00C3E99AEC9BE433D006D005D004703B
:0415DD000302162AC5
:0A15E100C002C003E5252504F5272C
:0715EB00E5263505F5288E09
:0A15F200298F02AB25EAC39503140C
:0A15FC002453F58274053400F583D2
:09160600E0FA852782852883851E
:07160F0029F0EA1270A4901B
:0A161600054F74012525F07400351E
:0A16200026A3F0D003D0020215A7A4
:0C162A0090054FE0FAA3E0FB8A828B835E
:011636002291
:0E163700AA83E582900560F0A3EAF0900560BA
:0E164500E0FAA3E0FB90056AEAF0A3EBF09058
:0D165300056CE4F0A3F0EA4B70030216DC16
:0D16600090056AE0FAA3E0FBEA4B7003027C
:02166D0016EB7A
:0E166F00900D9C740AF0E4A3F08A828B83C075
:0E167D0002C003127149AC82AD83D003D002CB
:0C168B0090056CE0FEA3E0FFE506246281
:0C169700F582E5073405F5837430250466
:0E16A300FCECF0900D8F740AF0E4A3F08A8244
:0E16B1008B83C006C00712700AE5828583F0A5
:0D16BF00D007D00690056AF0A3E5F0F0908A
:0E16CC00056C74012506F074003507A3F002CA
:0216DA00166098
:0E16DC009005627430F090056C7401F0E4A388
:0116EA00F00F
:0E16EB0090056CE0FAA3E0FB90056EEAF0A318
:0E16F900EBF090056CE4F0A3F090055DE0F5D9
:081707002AA3E0F52BA3E0F595
:09170F002C90056EE0FDA3E0FE44
:0E17180090056CE0FFA3E0F8C3EF9DE89E4053
:041726000302176E35
:0A172A00E507252AF9E500352BFA42
:0C173400AB2C8D04C005C0068F05ECC373
:0A1740009505142462F58274053447
:0D174A0000F583E0FC89828A838BF0EC12AD
:0E17570070A490056C74012507F07400350035
:09176500A3F0D006D0050217180C
:04176E008F8288835B
:011772002254
:0E177300AAF0AB83E582900573F0A3EBF0A320
:0E178100EAF090057C7400F0900570E0FAA389
:0E178F00E0FBA3E0FC8A828B838CF0740012D6
:08179D0070A4A374001270A4F3
:0E17A500C002C003C004900573E0FDA3E0FE87
:0E17B300A3E0FF8D828E838FF01271F6F8A3F3
:0E17C1001271F6F9A31271F6FA888289838AF2
:0E17CF00F01271F6F890057AE8F0B820047474
:0317DD0001800187
:0117E000E424
:0B17E100D004D003D0027003021828CF
:0D17EC00C002C003C0048D828E838FF012F6
:0A17F90071F6F8A31271F6F9A312BD
:0818030071F6FA08B8000109B2
:0D180B008D828E838FF0E81270A4A3E91285
:0E18180070A4A3EA1270A4D004D003D0020280
:0218260017A504
:05182800B82D02800351
:03182D0002187E20
:0E183000C002C003C00490057C7401F08D82DC
:0E183E008E838FF01271F6F8A31271F6F9A3E3
:09184C001271F6FA08B800010956
:0D1855008D828E838FF0E81270A4A3E9123B
:0E18620070A4A3EA1270A4888289838AF0120F
:0E18700071F6F890057AE8F0D004D003D002AB
:0A187E0090057AE0FDBD3002800302
:031888000219EC56
:0E188B00C002C003C004900573E0FEA3E0FF9E
:0E189900A3E0F88E828F8388F01271F6F9A317
:0E18A7001271F6FAA31271F6FB09B900010ADC
:0D18B5008E828F8388F0E91270A4A3EA12DE
:0E18C20070A4A3EB1270A489828A838BF012AB
:0E18D00071F6FD90057AEDF0BD4204740180C2
:0118DE000108
:0118DF00E424
:0B18E000D004D003D002600302195BAB
:0618EB00BD58030218FFC6
:0618F100BD620302195B59
:0518F700BD7802800332
:0318FC000219B717
:0D18FF00C002C003C00490057B7410F0907F
:0E190C000573E0FEA3E0FFA3E0F88E828F8358
:0D191A0088F01271F6F9A31271F6FAA3120B
:0819270071F6FB09B900010A89
:0D192F008E828F8388F0E91270A4A3EA1263
:0E193C0070A4A3EB1270A489828A838BF01230
:0E194A0071F6F990057AE9F0D004D003D002CE
:03195800021A0C64
:0D195B00C002C003C00490057B7402F09030
:0E1968000573E0FEA3E0FFA3E0F88E828F83FC
:0D19760088F01271F6F9A31271F6FAA312AF
:0819830071F6FB09B900010A2D
:0D198B008E828F8388F0E91270A4A3EA1207
:0E19980070A4A3EB1270A489828A838BF012D4
:0E19A60071F6F990057AE9F0D004D003D00272
:0319B400021A0C08
:0919B700C374209D50030219C9FC
:0919C000758201758300021B7F92
:0319C900BD30002E
:0519CC0050030219DACE
:0919D100C374399D40030219E3BF
:0919DA00758200758300021B7F79
:0919E30090057B7408F0021A0C57
:0319EC00BD30000B
:0519EF0050030219FD88
:0919F400C374399D4003021A0678
:0919FD00758200758300021B7F56
:061A060090057B740AF05C
:0B1A0C00900576E4F0A3F0A3F0A3F037
:0E1A170090057AE0FDC374209D4003021B3051
:031A2500BD6100A0
:051A28005003021A3416
:071A2D00ED24E090057AF0C2
:0D1A340090057AE0FDED24D090057AF09049
:071A4100057AE0FDBD110074
:051A48005003021A6BBF
:0E1A4D00ED24F990057AF090057AE0FDC3745F
:071A5B00099D5003021A6B04
:091A6200758200758300021B7FF0
:0E1A6B0090057AE0FD90057BE0FEC3ED9E50F5
:041A790003021A86C4
:091A7D00758200758300021B7FD5
:0E1A8600C002C003C004900576E0FFA3E0F8A4
:0E1A9400A3E0F9A3E0FA900D98EEF0A3740021
:0E1AA200F0A37400F0A37400F08F8288838993
:0E1AB000F0EAC0051270DDAA82AB83ACF0FE36
:0E1ABE00D0057F0078007900900576E50525BB
:0E1ACC0002F0E5073503A3F0E5003504A3F0B2
:0E1ADA00E5013506A3F0900573E0FAA3E0FBEA
:0E1AE800A3E0FC8A828B838CF01271F6FDA3C2
:0E1AF6001271F6FEA31271F6FF0DBD00010E77
:0D1B04008A828B838CF0ED1270A4A3EE1288
:0E1B110070A4A3EF1270A48D828E838FF01249
:0E1B1F0071F6FD90057AEDF0D004D003D002EF
:031B2D00021A1782
:0B1B300090057CE0FDED7003021B5CE3
:0E1B3B00900576E0FDA3E0FEA3E0FFA3E0F836
:0E1B4900900576C3E49DF0E49EA3F0E49FA314
:051B5700F0E498A3F08A
:0E1B5C00900576E0FDA3E0FEA3E0FFA3E0F815
:0D1B6A008A828B838CF0ED1270A4A3EE1222
:081B770070A475820175830062
:011B7F002243
:0E1B8000AA83E58290057DF0A3EAF090057F30
:031B8E007400F0F0
:0D1B910090057DE0FAA3E0FBEA4B70030233
:021B9E001BC466
:0C1BA00090057FE0FC90057FECB4010094
:0E1BAC00E433F0EA24FFFCEB34FFFD90057DEE
:0A1BBA00EC5AF0ED5BA3F0021B9162
:071BC40090057FE0FA8A8220
:011BCB0022F7
:02733C0020002F
:0E1BCC00AAF0AB83E582900584F0A3EBF0A3B2
:021BDA00EAF02F
:0E1BDC00900584E0FAA3E0FBA3E0FC900587EF
:0E1BEA00EAF0A3EBF0A3ECF0900580E0FAA384
:0E1BF800E0FBA3E0FCA3E0FD90058AEAF0A369
:0E1C0600EBF0A3ECF0A3EDF0900587E0FAA35D
:0E1C1400E0FBA3E0FC8A828B838CF01271F659
:091C2200FA90058EEAF0021BDCC9
:011C2B002296
:0B1C2C00E0F582859D83859EF0E59F1A
:011C3700228A
:0E1C3800C083C08290059FE0F59AA3E0F59B63
:0D1C4600A3E0F59C90059EE0D082D083F0D5
:011C5300226E
:0E1C5400C083C08290059CE0F59A90059BE04D
:051C6200D082D083F0E8
:011C6700225A
:061C6800E0F582859D837A
:011C6E002253
:0D1C6F00C083C08290059DE0D082D083F03C
:011C7C002245
:031C7D00E0F5820D
:011C80002241
:031C810075AF80BC
:011C8400223D
:061C850085AF8275AF007F
:011C8B002236
:031C8C008582AF9F
:011C8F002232
:0E1C9000AA83E5829005ABF0A3EAF09005ABC5
:081C9E00E0F52DA3E0F52E8511
:061CA6002D82852E831241
:0E1CAC001C2CAC82AD83AEF0FF9005ADECF0C9
:0E1CBA00A3EDF0A3EEF0A3EFF09005A3E0FC85
:0C1CC800A3E0FDA3E0FEA3E0FFECF4F5B8
:081CD4002FEDF4F530EEF4F5FC
:061CDC0031EFF4F5329037
:0E1CE20005ADE0FAA3E0FBA3E0F8A3E0F9EA09
:071CF000522FEB5230E852C5
:051CF70031E9523290BA
:061CFC0005A2E0F53390A3
:0E1D020005A7E0FBA3E0F8A3E0F9A3E0FA8553
:061D100033F005F0800D28
:0D1D1600EB25E0FBE833F8E933F9EA33FA96
:0E1D2300D5F0F0EB5204E85205E95206EA5200
:0A1D3100079005ADEC452FF0ED45DD
:0A1D3B0030A3F0EE4531A3F0EF45B0
:0C1D450032A3F09005ADE0FAA3E0FBA390
:0E1D5100E0FCA3E0FD90059EEAF0A3EBF0A3FA
:0A1D5F00ECF0A3EDF0852D82852E37
:041D690083121C388D
:011D6D002253
:0E1D6E00AA83E5829005B6F0A3EAF09005B6D0
:0E1D7C00E0FAA3E0FB8A828B83121C2CAA8261
:0E1D8A00AB83ACF0FD9005B2E0FEA3E0FFA33A
:0E1D9800E0F8A3E0F9EE5202EF5203E8520425
:0E1DA600E952059005B1E0FE8EF005F0800DCB
:0D1DB400C3ED13FDEC13FCEB13FBEA13FA77
:0E1DC100D5F0F09005B8EAF0A3EBF0A3ECF03B
:0E1DCF00A3EDF09005B8E0FAA3E0FBA3E0FC62
:0A1DDD00A3E0FD8A828B838CF0EDF9
:011DE70022D9
:0E1DE800AA83E5829005C1F0A3EAF09005C140
:0E1DF600E0FAA3E0FB8A828B83C002C00312D6
:0E1E04001C68E5828583F0D003D0029005C3F0
:0E1E1200F0A3E5F0F09005BDE0FCA3E0FDECD0
:0E1E2000F4FEEDF4FF9005C3E0F8A3E0F9E84E
:0C1E2E005206E952079005BCE0F5349024
:0C1E3A0005BFE0F9A3E0F88534F005F0E6
:021E4600800713
:071E4800E925E0F9E833F899
:0E1E4F00D5F0F6E95204E852059005C3EC4EBA
:0E1E5D00F0ED4FA3F09005C3E0FCA3E0FD9074
:0E1E6B00059BECF0A3EDF08A828B83121C54D1
:011E79002246
:0E1E7A00AA83E5829005C8F0A3EAF09005C89F
:0E1E8800E0FAA3E0FB8A828B83121C68AA8218
:0E1E9600AB839005C6E0FCA3E0FDEC5202ED2C
:0D1EA40052039005C5E0FC8CF005F08007AE
:071EB100C3EB13FBEA13FA77
:0E1EB800D5F0F69005CAEAF0A3EBF09005CA4B
:091EC600E0FAA3E0FB8A828B83A1
:011ECF0022F0
:0E1ED000AA83E5829005CFF0A3EAF09005CF3B
:0E1EDE00E0FAA3E0FB8A828B83C002C00312ED
:0D1EEC001C7DE582D003D0029005D1F0905E
:0E1EF90005CDE0FCECF4FD9005D1E0FEEE52CC
:0E1F0700059005CCE0FE9005CEE0FF8EF005C3
:041F1500F0EF800267
:021F190025E0C1
:0E1F1B00D5F0FB5C9005D14DF09005D1E0FCB7
:0C1F290090059DECF08A828B83121C6FE7
:011F35002289
:0E1F3600AA83E5829005D4F0A3EAF09005D4CA
:0E1F4400E0FAA3E0FB8A828B83121C7DAA8246
:0E1F52009005D3E0FBEB52029005D2E0FB8B32
:061F6000F005F0EA80022A
:021F6600C313A3
:0E1F6800D5F0FB9005D6F09005D6E0FA8A82FF
:011F76002248
:0E1F7700AAF0AB83E5829005E4F0A3EBF0A3A3
:0E1F8500EAF09005E4E0FAA3E0FBA3E0FC9094
:0E1F930005D7E0FDA3E0FEA3E0FFEAB5050AD6
:0A1FA100EBB50606ECB5070280035D
:031FAB000220B75A
:0D1FAE009005E7742EF09005E8742EF09079
:0C1FBB0005E9742FF09005EA7464F090C2
:0C1FC70005EB7472F09005EC7469F0906A
:0C1FD30005ED7476F09005EE7465F0905A
:0C1FDF0005EF7472F09005F07473F09040
:0C1FEB0005F1742FF09005F27443F090A3
:0C1FF70005F3746FF09005F47472F09024
:0C20030005F57465F09005F67457F09038
:0C200F0005F77461F09005F87474F0900F
:0C201B0005F97463F09005FA7468F09009
:0C20270005FB7464F09005FC746FF090F1
:0C20330005FD7467F09005FE742FF0901E
:0C203F0005FF7463F0900600746FF090D1
:0C204B0006017472F09006027465F090BB
:0C2057000603745FF09006047477F090AC
:0C20630006057461F09006067474F0909D
:0C206F0006077463F09006087468F09097
:0C207B0006097464F090060A746FF0907F
:0C208700060B7467F090060C742EF090AD
:0C209300060D7463F090060E7400F090CF
:0E209F0005807422F0E4A3F0A3F0A3F0758294
:0820AD00E775830575F00012D0
:0220B5001BCC42
:0920B7009005E0E0F519A3E0F545
:0820C0001AA3E0F51BA3E0F5F3
:0920C8001CC374099519740095FC
:0820D1001A7400951B740095C0
:0620D9001C40030221E897
:0D20DF0090060F742EF0900610742EF090F5
:0C20EC000611742FF09006127464F0903E
:0C20F80006137472F09006147469F090E6
:0C21040006157476F09006167465F090D5
:0C21100006177472F09006187473F090BB
:0C211C000619742FF090061A7443F0901E
:0C212800061B746FF090061C7472F0909F
:0C213400061D7465F090061E7457F090B4
:0C214000061F7461F09006207474F0908B
:0C214C0006217463F09006227468F09085
:0C21580006237464F0900624746FF0906D
:0C21640006257467F0900626742FF0909A
:0C21700006277463F0900628746FF0904E
:0C217C0006297472F090062A7465F09039
:0C218800062B745FF090062C7477F0902A
:0C219400062D7461F090062E7474F0901B
:0C21A000062F7463F09006307468F09015
:0C21AC0006317464F0900632746FF090FD
:0C21B80006337467F0900634742EF0902B
:0C21C40006357463F09006367400F0904D
:0E21D00005807423F0E4A3F0A3F0A3F0758261
:0821DE000F75830675F0001275
:0221E6001BCC10
:0E21E8009005E4E0FEA3E0FFA3E0F89005DA26
:0D21F600E0F9A3E0FA8E828F8388F0E912F1
:0E22030070A4A3EA1270A474082501F97400F7
:0E2211003502FA9005A27404F09005A3741033
:0E221F00F0E4A3F0A3F0A3F09005A7E4F0A371
:0E222D00F0A3F0A3F089828A83C006C007C028
:0E223B0000121C90D000D007D0068E828F8338
:0E22490088F01271F6FAA31271F6FB740825E4
:0E22570002FA74003503FB9005A27400F090AB
:0D22650005A3740FF0E4A3F0A3F0A3F09024
:0722720005A7E519F0A3E543
:082279001AF0A3E51BF0A3E538
:0C2281001CF08A828B83C006C007C000DE
:0E228D00121C90D000D007D0068E828F83885E
:0B229B00F01271F6FEA31271F6FF9026
:0E22A60005DCE0FAA3E0FBA3E0FCA3E0FD9062
:0E22B400059EEAF0A3EBF0A3ECF0A3EDF08E94
:0622C200828F83121C381C
:0122C80022F3
:0E22C900AAF0AB83E582900637F0A3EBF0A3FA
:0E22D700EAF0900637E0FAA3E0FBA3E0FC90EB
:0E22E50005D7E0FDA3E0FEA3E0FFEAB5050A81
:0A22F300EBB50606ECB50702800308
:0322FD00022409AF
:0D23000090063A742EF090063B742EF0907B
:0C230D00063C742FF090063D7464F090C4
:0C231900063E7472F090063F7469F0906C
:0C23250006407476F09006417465F0905C
:0C23310006427472F09006437473F09042
:0C233D000644742FF09006457443F090A5
:0C2349000646746FF09006477472F09026
:0C23550006487465F09006497457F0903B
:0C236100064A7461F090064B7474F09012
:0C236D00064C7463F090064D7468F0900C
:0C237900064E7464F090064F746FF090F4
:0C23850006507467F0900651742FF09021
:0C23910006527463F0900653746FF090D5
:0C239D0006547472F09006557465F090C0
:0C23A9000656745FF09006577477F090B1
:0C23B50006587461F09006597474F090A2
:0C23C100065A7463F090065B7468F0909C
:0C23CD00065C7464F090065D746FF09084
:0C23D900065E7467F090065F742EF090B2
:0C23E50006607463F09006617400F090D4
:0E23F10005807439F0E4A3F0A3F0A3F0758228
:0823FF003A75830675F0001227
:022407001BCCEC
:0E240900900637E0FAA3E0FBA3E0FC8A828B8A
:0E241700838CF01271F6FAA31271F6FB7408B2
:0E2425002502FA74003503FB9005A27404F042
:0E2433009005A37410F0E4A3F0A3F0A3F090C2
:0E24410005A77401F0E4A3F0A3F0A3F08A82D3
:05244F008B83121C90BC
:012454002265
:0E245500AAF0AB83E582900662F0A3EBF0A341
:0E246300EAF0900662E0FAA3E0FBA3E0FC9032
:0E24710005D7E0FDA3E0FEA3E0FFEAB5050AF3
:0A247F00EBB50606ECB5070280037A
:0324890002259594
:0D248C00900665742EF0900666742EF09098
:0C2499000667742FF09006687464F090E1
:0C24A50006697472F090066A7469F09089
:0C24B100066B7476F090066C7465F09079
:0C24BD00066D7472F090066E7473F0905F
:0C24C900066F742FF09006707443F090C2
:0C24D5000671746FF09006727472F09043
:0C24E10006737465F09006747457F09058
:0C24ED0006757461F09006767474F0902F
:0C24F90006777463F09006787468F09029
:0C25050006797464F090067A746FF09010
:0C251100067B7467F090067C742FF0903D
:0C251D00067D7463F090067E746FF090F1
:0C252900067F7472F09006807465F090DC
:0C2535000681745FF09006827477F090CD
:0C25410006837461F09006847474F090BE
:0C254D0006857463F09006867468F090B8
:0C25590006877464F0900688746FF090A0
:0C25650006897467F090068A742EF090CE
:0C257100068B7463F090068C7400F090F0
:0E257D0005807449F0E4A3F0A3F0A3F075828A
:08258B006575830675F000126E
:022593001BCC5F
:0E259500900662E0FAA3E0FBA3E0FC8A828BD2
:0E25A300838CF01271F6FAA31271F6FB740825
:0E25B1002502FA74003503FB9005A27404F0B5
:0E25BF009005A37410F0E4A3F0A3F0A3F09035
:0E25CD0005A7E4F0A3F0A3F0A3F08A828B83AD
:0325DB00121C903F
:0125DE0022DA
:0E25DF00AAF0AB83E58290068DF0A3EBF0A38B
:0E25ED00EAF090068DE0FAA3E0FBA3E0FC907C
:0E25FB0005D7E0FDA3E0FEA3E0FFEAB5050A68
:0A260900EBB50606ECB507028003EE
:0326130002271F7C
:0D261600900690742EF0900691742EF090B6
:0C2623000692742FF09006937464F090FF
:0C262F0006947472F09006957469F090A7
:0C263B0006967476F09006977465F09097
:0C26470006987472F09006997473F0907D
:0C265300069A742FF090069B7443F090E0
:0C265F00069C746FF090069D7472F09061
:0C266B00069E7465F090069F7457F09076
:0C26770006A07461F09006A17474F0904D
:0C26830006A27463F09006A37468F09047
:0C268F0006A47464F09006A5746FF0902F
:0C269B0006A67467F09006A7742FF0905C
:0C26A70006A87463F09006A9746FF09010
:0C26B30006AA7472F09006AB7465F090FB
:0C26BF0006AC745FF09006AD7477F090EC
:0C26CB0006AE7461F09006AF7474F090DD
:0C26D70006B07463F09006B17468F090D7
:0C26E30006B27464F09006B3746FF090BF
:0C26EF0006B47467F09006B5742EF090ED
:0C26FB0006B67463F09006B77400F0900F
:0E27070005807459F0E4A3F0A3F0A3F07582EE
:082715009075830675F00012B7
:02271D001BCCD3
:0E271F0090068DE0FAA3E0FBA3E0FC8A828B1B
:0E272D00838CF01271F6FAA31271F6FB740C95
:0E273B002502FA74003503FB90059E7401F030
:0E274900E4A3F0A3F0A3F08A828B83121C3865
:01275700225F
:0E275800AAF0AB83E5829006B8F0A3EBF0A3E5
:0E276600EAF09006B8E0FAA3E0FBA3E0FC90D6
:0E27740005D7E0FDA3E0FEA3E0FFEAB5050AED
:0A278200EBB50606ECB50702800374
:03278C0002289888
:0D278F009006BB742EF09006BC742EF090E6
:0C279C0006BD742FF09006BE7464F0902F
:0C27A80006BF7472F09006C07469F090D7
:0C27B40006C17476F09006C27465F090C7
:0C27C00006C37472F09006C47473F090AD
:0C27CC0006C5742FF09006C67443F09010
:0C27D80006C7746FF09006C87472F09091
:0C27E40006C97465F09006CA7457F090A6
:0C27F00006CB7461F09006CC7474F0907D
:0C27FC0006CD7463F09006CE7468F09077
:0C28080006CF7464F09006D0746FF0905E
:0C28140006D17467F09006D2742FF0908B
:0C28200006D37463F09006D4746FF0903F
:0C282C0006D57472F09006D67465F0902A
:0C28380006D7745FF09006D87477F0901B
:0C28440006D97461F09006DA7474F0900C
:0C28500006DB7463F09006DC7468F09006
:0C285C0006DD7464F09006DE746FF090EE
:0C28680006DF7467F09006E0742EF0901C
:0C28740006E17463F09006E27400F0903E
:0E28800005807469F0E4A3F0A3F0A3F0758264
:08288E00BB75830675F0001212
:022896001BCC59
:0E2898009006B8E0FAA3E0FBA3E0FC8A828B76
:0E28A600838CF01271F6FAA31271F6FB740423
:0D28B4002502FA74003503FB8A828B831223
:0E28C1001C2CAA82AB83ACF0FD8A828B838C28
:0228CF00F0ED2A
:0128D10022E4
:0E28D200AAF0AB83E5829006E8F0A3EBF0A33A
:0E28E000EAF09006E8E0FAA3E0FBA3E0FCBA01
:0A28EE000008BB0005BC00028003D7
:0328F8000229FEB4
:0D28FB009006EC742EF09006ED742EF09017
:0C29080006EE742FF09006EF7464F0905F
:0C29140006F07472F09006F17469F09007
:0C29200006F27476F09006F37465F090F7
:0C292C0006F47472F09006F57473F090DD
:0C29380006F6742FF09006F77443F09040
:0C29440006F8746FF09006F97472F090C1
:0C29500006FA7465F09006FB7455F090D8
:0C295C0006FC7441F09006FD7452F090EF
:0C29680006FE7454F09006FF7461F090BD
:0C29740007007470F09007017462F0908E
:0C2980000702742FF09007037463F090BE
:0C298C000704746FF09007057472F0905F
:0C29980007067465F0900707745FF0906C
:0C29A40007087475F09007097461F0904A
:0C29B000070A7472F090070B7474F0902A
:0C29BC00070C745FF090070D7461F09040
:0C29C800070E7470F090070F7462F0901E
:0C29D4000710742EF09007117463F0904F
:0E29E00007127400F09005807430F0E4A3F04C
:0A29EE00A3F0A3F07582EC758306D8
:0629F80075F000121BCC7B
:0A29FE009006E7E0F535C374079575
:0A2A080035E433FBEB7003022B19D9
:0D2A1200900713742EF0900714742EF090AE
:0C2A1F000715742FF09007167464F090F7
:0C2A2B0007177472F09007187469F0909F
:0C2A370007197476F090071A7465F0908F
:0C2A4300071B7472F090071C7473F09075
:0C2A4F00071D742FF090071E7443F090D8
:0C2A5B00071F746FF09007207472F09059
:0C2A670007217465F09007227455F09070
:0C2A730007237441F09007247452F09087
:0C2A7F0007257454F09007267461F09055
:0C2A8B0007277470F09007287462F09028
:0C2A97000729742FF090072A7463F09058
:0C2AA300072B746FF090072C7472F090F9
:0C2AAF00072D7465F090072E745FF09006
:0C2ABB00072F7475F09007307461F090E4
:0C2AC70007317472F09007327474F090C4
:0C2AD3000733745FF09007347461F090DA
:0C2ADF0007357470F09007367462F090B8
:0C2AEB000737742EF09007387463F090E9
:0E2AF70007397400F09005807431F0E4A3F00C
:0A2B0500A3F0A3F075821375830797
:0A2B0F0075F000C003121BCCD003C8
:0E2B19009006E5E0FCA3E0FDC374FF9C741F72
:0A2B27009DE433FEEE7003022C441F
:0D2B310090073A742EF090073B742EF09040
:0C2B3E00073C742FF090073D7464F09089
:0C2B4A00073E7472F090073F7469F09031
:0C2B560007407476F09007417465F09021
:0C2B620007427472F09007437473F09007
:0C2B6E000744742FF09007457443F0906A
:0C2B7A000746746FF09007477472F090EB
:0C2B860007487465F09007497455F09002
:0C2B9200074A7441F090074B7452F09019
:0C2B9E00074C7454F090074D7461F090E7
:0C2BAA00074E7470F090074F7462F090BA
:0C2BB6000750742FF09007517463F090EA
:0C2BC2000752746FF09007537472F0908B
:0C2BCE0007547465F0900755745FF09098
:0C2BDA0007567475F09007577461F09076
:0C2BE60007587472F09007597474F09056
:0C2BF200075A745FF090075B7461F0906C
:0C2BFE00075C7470F090075D7462F0904A
:0C2C0A00075E742EF090075F7463F0907A
:0E2C160007607400F09005807432F0E4A3F0C3
:0A2C2400A3F0A3F075823A75830750
:0E2C2E0075F000C003C004C005C006121BCC28
:082C3C00D006D005D004D0033E
:0E2C44009006E8E0FFA3E0F8A3E0F9BF000966
:092C5200B80006B9000302306568
:062C5B00EB60030230658E
:062C6100EE600302306585
:092C67009006E3E0F536A3E0F568
:062C70003774082536F55B
:062C76003874003537F54B
:0B2C7C00398C067A0090059DEEF08573
:0A2C87003882853983C004C005C0FF
:0E2C910007C000C001121C6FD001D000D00798
:0A2C9F00D005D004740C2536F53A78
:0A2CA90074003537F53B7E008D0204
:0E2CB300EAC403CEC40354076ECE5407CE6E9F
:0A2CC100CEFA90059DEE4535F08532
:0A2CCB003A82853B83C004C005C0B7
:0E2CD50007C000C001121C6FD001D000D00754
:0C2CE300D005D0048F82888389F0E5368C
:072CEF001270A4A3E53712E7
:062CF60070A48538828500
:0C2CFC003983C004C005C007C000C0013F
:0E2D0800121C7DAA82D001D000D007D005D0C9
:0E2D1600047B008F82888389F01271F6FFA380
:0E2D24001271F6F8740C2507FF74003500F8E4
:0D2D32008F828883C002C003C004C0051258
:0E2D3F001C7DAE82D005D004D003D00274F803
:0E2D4D005EFF7800E8C42354E0CFC423CF6FAC
:0E2D5B00CF54E0CF6FF8EF4202E84203530678
:0C2D690007EAB50407EBB50503022E7C59
:0D2D7500900761742EF0900762742EF090AC
:0C2D82000763742FF09007647464F090F5
:0C2D8E0007657472F09007667469F0909D
:0C2D9A0007677476F09007687465F0908D
:0C2DA60007697472F090076A7473F09073
:0C2DB200076B742FF090076C7443F090D6
:0C2DBE00076D746FF090076E7472F09057
:0C2DCA00076F7465F09007707455F0906E
:0C2DD60007717441F09007727452F09085
:0C2DE20007737454F09007747461F09053
:0C2DEE0007757470F09007767462F09026
:0C2DFA000777742FF09007787463F09056
:0C2E06000779746FF090077A7472F090F6
:0C2E1200077B7465F090077C745FF09003
:0C2E1E00077D7475F090077E7461F090E1
:0C2E2A00077F7472F09007807474F090C1
:0C2E36000781745FF09007827461F090D7
:0C2E420007837470F09007847462F090B5
:0C2E4E000785742EF09007867463F090E6
:0E2E5A0007877400F09005807454F0E4A3F034
:0A2E6800A3F0A3F0758261758307E3
:0A2E720075F000C006121BCCD0065C
:072E7C00EEB53503022F86BD
:0D2E8300900788742EF0900789742EF0904F
:0C2E9000078A742FF090078B7464F09098
:0C2E9C00078C7472F090078D7469F09040
:0C2EA800078E7476F090078F7465F09030
:0C2EB40007907472F09007917473F09016
:0C2EC0000792742FF09007937443F09079
:0C2ECC000794746FF09007957472F090FA
:0C2ED80007967465F09007977455F09011
:0C2EE40007987441F09007997452F09028
:0C2EF000079A7454F090079B7461F090F6
:0C2EFC00079C7470F090079D7462F090C9
:0C2F0800079E742FF090079F7463F090F8
:0C2F140007A0746FF09007A17472F09099
:0C2F200007A27465F09007A3745FF090A6
:0C2F2C0007A47475F09007A57461F09084
:0C2F380007A67472F09007A77474F09064
:0C2F440007A8745FF09007A97461F0907A
:0C2F500007AA7470F09007AB7462F09058
:0C2F5C0007AC742EF09007AD7463F09089
:0E2F680007AE7400F09005807455F0E4A3F0FD
:0A2F7600A3F0A3F0758288758307AD
:062F800075F000121BCCED
:0E2F86009006E8E0FAA3E0FBA3E0FC8A828B51
:0E2F9400838CF01271F6FDA31271F6FE74101C
:0E2FA2002505FD74003506FE8D828E83C0026B
:0E2FB000C003C004121C7DAD82D004D003D03B
:0D2FBE00027E005305027E009006EBEDF050
:0B2FCB009006EBE0FDED7003023045C6
:0E2FD6008A828B838CF01271F6FDA31271F6C5
:0E2FE400FE74042505FD74003506FE8D828EF8
:0E2FF20083C002C003C004121C7DE582D0041F
:0E300000D003D0029007AFF08A828B838CF051
:0E300E001271F6FDA31271F6FE74102505FD79
:0E301C0074003506FE8D828E83C002C003C094
:0E302A0004121C7DAD82D004D003D0027E00C3
:0D3038005305027E009006EBEDF0022FCB59
:0E3045009006E8E0FAA3E0FBA3E0FC7402258D
:0E30530002FA74003503FB8A828B838CF074C2
:04306100001270A445
:013065002248
:0E306600AAF0AB83E5829007B5F0A3EBF0A3D0
:0E307400EAF09007B5E0FAA3E0FBA3E0FCBA97
:0A3082000008BB0005BC000280033B
:03308C000231927C
:0D308F009007BA742EF09007BB742EF090DD
:0C309C0007BC742FF09007BD7464F09026
:0C30A80007BE7472F09007BF7469F090CE
:0C30B40007C07476F09007C17465F090BE
:0C30C00007C27472F09007C37473F090A4
:0C30CC0007C4742FF09007C57443F09007
:0C30D80007C6746FF09007C77472F09088
:0C30E40007C87465F09007C97455F0909F
:0C30F00007CA7441F09007CB7452F090B6
:0C30FC0007CC7454F09007CD7461F09084
:0C31080007CE7470F09007CF7462F09056
:0C31140007D0742FF09007D17463F09086
:0C31200007D2746FF09007D37472F09027
:0C312C0007D47465F09007D5745FF09034
:0C31380007D67475F09007D77461F09012
:0C31440007D87472F09007D97474F090F2
:0C31500007DA745FF09007DB7461F09008
:0C315C0007DC7470F09007DD7462F090E6
:0C31680007DE742EF09007DF7463F09017
:0E31740007E07400F0900580747DF0E4A3F095
:0A318200A3F0A3F07582BA7583076D
:06318C0075F000121BCCDF
:093192009007B0E0F53FA3E0F561
:06319B0040A3E0F541E550
:0831A1003F700CE5407008E5E9
:0731A9004170047401800174
:0131B000E43A
:0731B100FDED70030232BFC7
:0D31B8009007E1742EF09007E2742EF09065
:0C31C50007E3742FF09007E47464F090AE
:0C31D10007E57472F09007E67469F09056
:0C31DD0007E77476F09007E87465F09046
:0C31E90007E97472F09007EA7473F0902C
:0C31F50007EB742FF09007EC7443F0908F
:0C32010007ED746FF09007EE7472F0900F
:0C320D0007EF7465F09007F07455F09026
:0C32190007F17441F09007F27452F0903D
:0C32250007F37454F09007F47461F0900B
:0C32310007F57470F09007F67462F090DE
:0C323D0007F7742FF09007F87463F0900E
:0C32490007F9746FF09007FA7472F090AF
:0C32550007FB7465F09007FC745FF090BC
:0C32610007FD7475F09007FE7461F0909A
:0C326D0007FF7472F09008007474F09079
:0C3279000801745FF09008027461F0908E
:0C32850008037470F09008047462F0906C
:0C3291000805742EF09008067463F0909D
:0E329D0008077400F0900580747EF0E4A3F042
:0A32AB00A3F0A3F07582E17583071C
:0A32B50075F000C005121BCCD00517
:0D32BF009007B3E0FEA3E0FFEE4F600302B6
:0232CC0033DDF0
:0D32CE00900808742EF0900809742EF090FE
:0C32DB00080A742FF090080B7464F09047
:0C32E700080C7472F090080D7469F090EF
:0C32F300080E7476F090080F7465F090DF
:0C32FF0008107472F09008117473F090C5
:0C330B000812742FF09008137443F09027
:0C3317000814746FF09008157472F090A8
:0C33230008167465F09008177455F090BF
:0C332F0008187441F09008197452F090D6
:0C333B00081A7454F090081B7461F090A4
:0C334700081C7470F090081D7462F09077
:0C335300081E742FF090081F7463F090A7
:0C335F000820746FF09008217472F09048
:0C336B0008227465F0900823745FF09055
:0C33770008247475F09008257461F09033
:0C33830008267472F09008277474F09013
:0C338F000828745FF09008297461F09029
:0C339B00082A7470F090082B7462F09007
:0C33A700082C742EF090082D7463F09038
:0E33B300082E7400F0900580747FF0E4A3F003
:0A33C100A3F0A3F0758208758308DD
:0E33CB0075F000C005C006C007121BCCD0076D
:0433D900D006D00545
:0E33DD009007B5E0FAA3E0FBA3E0FCBA0009FC
:0933EB00BB0006BC00030234CF54
:0633F400ED60030234CF7E
:0733FA00EE4F70030234CF17
:0D3401009007B8E4F0A3F08A058B008C0161
:0E340E009007B8E0FAA3E0FBC3EA9EEB9FE450
:06341C003370030234CFFF
:0E3422008D82888389F01271F6FAA31271F67A
:0E343000FB74102502FA74003503FB8A828BB0
:0E343E0083C005C006C007C000C001121C7D7F
:0E344C00AA82D001D000D007D006D0057B00A8
:0B345A005302017B00EA7003023422E1
:0E346500C006C0078D82888389F01271F6F5CB
:063473003CA31271F6F506
:0C3479003D9007B8E0FEA3E0FFE506254B
:083485003FFAE5073540FBACFE
:0C348D00418A828B838CF01271F6FA9059
:08349900059DEAF0853C8285E7
:0C34A1003D83C005C006C007C000C0018C
:0E34AD00121C6FD001D000D007D006D00590C1
:0E34BB0007B874012506F074003507A3F0D0A1
:0634C90007D00602340EDC
:0134CF0022DA
:0E34D000AAF0AB83E582900834F0A3EBF0A3E2
:0E34DE00EAF0900837E4F0A3F0900834E0FA2A
:0E34EC00A3E0FBA3E0FCBA0008BB0005BC0097
:0334FA000280034A
:0334FD0002360391
:0D350000900839742EF090083A742EF09067
:0C350D00083B742FF090083C7464F090B0
:0C351900083D7472F090083E7469F09058
:0C352500083F7476F09008407465F09048
:0C35310008417472F09008427473F0902E
:0C353D000843742FF09008447443F09091
:0C3549000845746FF09008467472F09012
:0C35550008477465F09008487455F09029
:0C35610008497441F090084A7452F09040
:0C356D00084B7454F090084C7461F0900E
:0C357900084D7470F090084E7462F090E1
:0C358500084F742FF09008507463F09011
:0C3591000851746FF09008527472F090B2
:0C359D0008537465F0900854745FF090BF
:0C35A90008557475F09008567461F0909D
:0C35B50008577472F09008587474F0907D
:0C35C1000859745FF090085A7461F09093
:0C35CD00085B7470F090085C7462F09071
:0C35D900085D742EF090085E7463F090A2
:0E35E500085F7400F090058074A2F0E4A3F07B
:0A35F300A3F0A3F075823975830878
:0635FD0075F000121BCC6A
:0936030090082FE0F545A3E0F565
:06360C0046A3E0F547E5CE
:0836120045700CE5467008E567
:07361A0047700474018001F8
:01362100E4C4
:07362200FDED7003023730DB
:0D362900900860742EF0900861742EF090EF
:0C3636000862742FF09008637464F09038
:0C36420008647472F09008657469F090E0
:0C364E0008667476F09008677465F090D0
:0C365A0008687472F09008697473F090B6
:0C366600086A742FF090086B7443F09019
:0C367200086C746FF090086D7472F0909A
:0C367E00086E7465F090086F7455F090B1
:0C368A0008707441F09008717452F090C8
:0C36960008727454F09008737461F09096
:0C36A20008747470F09008757462F09069
:0C36AE000876742FF09008777463F09099
:0C36BA000878746FF09008797472F0903A
:0C36C600087A7465F090087B745FF09047
:0C36D200087C7475F090087D7461F09025
:0C36DE00087E7472F090087F7474F09005
:0C36EA000880745FF09008817461F0901B
:0C36F60008827470F09008837462F090F9
:0C3702000884742EF09008857463F09029
:0E370E0008867400F090058074A3F0E4A3F028
:0A371C00A3F0A3F075826075830826
:0A37260075F000C005121BCCD005A1
:0D373000900832E0FEA3E0FFEE4F600302C0
:02373D00384E04
:0D373F00900887742EF0900888742EF0908A
:0C374C000889742FF090088A7464F090D3
:0C375800088B7472F090088C7469F0907B
:0C376400088D7476F090088E7465F0906B
:0C377000088F7472F09008907473F09051
:0C377C000891742FF09008927443F090B4
:0C3788000893746FF09008947472F09035
:0C37940008957465F09008967455F0904C
:0C37A00008977441F09008987452F09063
:0C37AC0008997454F090089A7461F09031
:0C37B800089B7470F090089C7462F09004
:0C37C400089D742FF090089E7463F09034
:0C37D000089F746FF09008A07472F090D5
:0C37DC0008A17465F09008A2745FF090E2
:0C37E80008A37475F09008A47461F090C0
:0C37F40008A57472F09008A67474F090A0
:0C38000008A7745FF09008A87461F090B5
:0C380C0008A97470F09008AA7462F09093
:0C38180008AB742EF09008AC7463F090C4
:0E38240008AD7400F090058074A4F0E4A3F0E9
:0A383200A3F0A3F0758287758308E8
:0E383C0075F000C005C006C007121BCCD007F7
:04384A00D006D005CF
:0E384E00900834E0FAA3E0FBA3E0FCBA000906
:09385C00BB0006BC000302397731
:06386500ED60030239775B
:07386B00EE4F7003023977F4
:0E3872008A828B838CF01271F6FDA31271F620
:0E388000F874102505FD74003500F88D82885F
:0E388E0083C002C003C004C006C007121C7D28
:0E389C00AD82D007D006D004D003D002780051
:0B38AA005305017800ED700302397730
:0638B5008A058B008C0166
:0E38BB00C006C0078D82888389F01271F6F571
:0638C90042A31271F6F5A6
:0C38CF0043900837E0FEA3E0FFE506256B
:0838DB0045FAE5073546FBAC98
:0C38E300478A828B838CF01271F6FA90F9
:0838EF00059DEAF08542828587
:0C38F7004383C005C006C007C000C0012C
:0E390300121C6FD001D000D007D006D0059066
:0E391100083774012506F074003507A3F08D09
:0E391F0082888389F01271F6FAA31271F6FB0A
:0E392D0074102502FA74003503FB8A828B8326
:0E393B00C005C006C007C000C001121C7DAA56
:0E39490082D001D000D007D006D0057B0053FD
:0E39570002017B00D007D006EA700302397728
:0E396500900837E0FAA3E0FBC3EA9EEB9F5008
:04397300030238BB58
:0C397700900837E0FAA3E0FB8A828B8303
:013983002221
:0E398400AAF0AB83E5829008B3F0A3EBF0A3AA
:0E399200EAF09008B7E4F0A3F09008B3E0FA72
:0E39A000A3E0FBA3E0FCBA0008BB0005BC00DE
:0339AE0002800391
:0339B100023AB720
:0D39B4009008B9742EF09008BA742EF090AF
:0C39C10008BB742FF09008BC7464F090F8
:0C39CD0008BD7472F09008BE7469F090A0
:0C39D90008BF7476F09008C07465F09090
:0C39E50008C17472F09008C27473F09076
:0C39F10008C3742FF09008C47443F090D9
:0C39FD0008C5746FF09008C67472F0905A
:0C3A090008C77465F09008C87455F09070
:0C3A150008C97441F09008CA7452F09087
:0C3A210008CB7454F09008CC7461F09055
:0C3A2D0008CD7470F09008CE7462F09028
:0C3A390008CF742FF09008D07463F09058
:0C3A450008D1746FF09008D27472F090F9
:0C3A510008D37465F09008D4745FF09006
:0C3A5D0008D57475F09008D67461F090E4
:0C3A690008D77472F09008D87474F090C4
:0C3A750008D9745FF09008DA7461F090DA
:0C3A810008DB7470F09008DC7462F090B8
:0C3A8D0008DD742EF09008DE7463F090E9
:0E3A990008DF7400F090058074CCF0E4A3F018
:0A3AA700A3F0A3F07582B97583083F
:063AB10075F000121BCCB1
:093AB7009008AEE0F54BA3E0F528
:063AC0004CA3E0F54DE50A
:083AC6004B700CE54C7008E5A3
:073ACE004D7004740180013A
:013AD500E40C
:073AD600FDED7003023BE46B
:0D3ADD009008E0742EF09008E1742EF09037
:0C3AEA0008E2742FF09008E37464F09080
:0C3AF60008E47472F09008E57469F09028
:0C3B020008E67476F09008E77465F09017
:0C3B0E0008E87472F09008E97473F090FD
:0C3B1A0008EA742FF09008EB7443F09060
:0C3B260008EC746FF09008ED7472F090E1
:0C3B320008EE7465F09008EF7455F090F8
:0C3B3E0008F07441F09008F17452F0900F
:0C3B4A0008F27454F09008F37461F090DD
:0C3B560008F47470F09008F57462F090B0
:0C3B620008F6742FF09008F77463F090E0
:0C3B6E0008F8746FF09008F97472F09081
:0C3B7A0008FA7465F09008FB745FF0908E
:0C3B860008FC7475F09008FD7461F0906C
:0C3B920008FE7472F09008FF7474F0904C
:0C3B9E000900745FF09009017461F09060
:0C3BAA0009027470F09009037462F0903E
:0C3BB6000904742EF09009057463F0906F
:0E3BC20009067400F090058074CDF0E4A3F0C5
:0A3BD000A3F0A3F07582E0758308EE
:0A3BDA0075F000C005121BCCD005E9
:0D3BE4009008B1E0FEA3E0FFEE4F60030289
:023BF1003D0293
:0D3BF300900907742EF0900908742EF090D0
:0C3C00000909742FF090090A7464F09018
:0C3C0C00090B7472F090090C7469F090C0
:0C3C1800090D7476F090090E7465F090B0
:0C3C2400090F7472F09009107473F09096
:0C3C30000911742FF09009127443F090F9
:0C3C3C000913746FF09009147472F0907A
:0C3C480009157465F09009167455F09091
:0C3C540009177441F09009187452F090A8
:0C3C600009197454F090091A7461F09076
:0C3C6C00091B7470F090091C7462F09049
:0C3C7800091D742FF090091E7463F09079
:0C3C8400091F746FF09009207472F0901A
:0C3C900009217465F0900922745FF09027
:0C3C9C0009237475F09009247461F09005
:0C3CA80009257472F09009267474F090E5
:0C3CB4000927745FF09009287461F090FB
:0C3CC00009297470F090092A7462F090D9
:0C3CCC00092B742EF090092C7463F0900A
:0E3CD800092D7400F090058074CEF0E4A3F086
:0A3CE600A3F0A3F0758207758309AF
:0E3CF00075F000C005C006C007121BCCD0073F
:043CFE00D006D00517
:093D02009008B3E0F548A3E0F5D8
:063D0B0049A3E0F54AE5C2
:083D110048700BE5497007E55D
:063D19004A7003023E8A1D
:063D1F00ED6003023E8A84
:073D2500EE4F7003023E8A1D
:0B3D2C009008B7E4F0A3F08548828502
:063D37004983854AF012E9
:0E3D3D0071F6FDA31271F6F874102505FD74E1
:0D3D4B00003500F88D828883C006C0071285
:0C3D58001C7DAD82D007D0067402254807
:0A3D6400F874003549F9AA4A888274
:0E3D6E0089838AF01271F6FBED420388828988
:0E3D7C00838AF0EB1270A47A005305027A00DD
:083D8A009008B6EDF0AD48A869
:033D920049A94AF2
:0B3D95009008B6E0FAEA7003023E8AD4
:0E3DA0009008B7E0FAA3E0FBC3EA9EEB9F4059
:043DAE0003023E8A44
:0A3DB200C006C007E502254BF548E6
:073DBC00E503354CF54985D4
:093DC3004D4A8D82888389F012BB
:0E3DCC0071F6FCA31271F6FE74042504FC745B
:0E3DDA00003506FE8C828E83C002C003C00539
:0E3DE800C006C007C000C001121C7DAC82D016
:0E3DF60001D000D007D006D005D003D0028542
:063E040048828549838518
:073E0A004AF0EC1270A490D5
:0E3E110008B774012502F074003503A3F08D8C
:0E3E1F0082888389F01271F6FAA31271F6FB05
:0E3E2D0074102502FA74003503FB8A828B8321
:0E3E3B00C005C006C007C000C001121C7DAA51
:0E3E490082D001D000D007D006D0057402252B
:0E3E570005FB74003500FC89068B828C838E7F
:0E3E6500F01271F6FFEA42078B828C838EF01A
:0E3E7300EF1270A47B005302027B009008B691
:093E8100EAF0D007D006023D95DD
:0C3E8A009008B7E0FAA3E0FB8A828B836B
:013E96002209
:0E3E9700AAF0AB83E582900931F0A3EBF0A313
:0E3EA500EAF0900931E0FAA3E0FBA3E0FCBADA
:0A3EB3000008BB0005BC00028003FC
:033EBD00023FC3FE
:0D3EC000900938742EF0900939742EF0909E
:0C3ECD00093A742FF090093B7464F090E7
:0C3ED900093C7472F090093D7469F0908F
:0C3EE500093E7476F090093F7465F0907F
:0C3EF10009407472F09009417473F09065
:0C3EFD000942742FF09009437443F090C8
:0C3F09000944746FF09009457472F09048
:0C3F150009467465F09009477455F0905F
:0C3F210009487441F09009497452F09076
:0C3F2D00094A7454F090094B7461F09044
:0C3F3900094C7470F090094D7462F09017
:0C3F4500094E742FF090094F7463F09047
:0C3F51000950746FF09009517472F090E8
:0C3F5D0009527465F0900953745FF090F5
:0C3F690009547475F09009557461F090D3
:0C3F750009567472F09009577474F090B3
:0C3F81000958745FF09009597461F090C9
:0C3F8D00095A7470F090095B7462F090A7
:0C3F9900095C742EF090095D7463F090D8
:0E3FA500095E7400F090058074F3F0E4A3F060
:0A3FB300A3F0A3F0758238758309AE
:063FBD0075F000121BCCA0
:0E3FC30090092EE0FAA3E0FBA3E0FCBA000A8E
:0A3FD100BB0007BC0004740180016E
:013FDB00E401
:073FDC00FDED70030240F649
:0D3FE30090095F742EF0900960742EF0902C
:0C3FF0000961742FF09009627464F09075
:0C3FFC0009637472F09009647469F0901D
:0C40080009657476F09009667465F0900C
:0C40140009677472F09009687473F090F2
:0C4020000969742FF090096A7443F09055
:0C402C00096B746FF090096C7472F090D6
:0C403800096D7465F090096E7455F090ED
:0C404400096F7441F09009707452F09004
:0C40500009717454F09009727461F090D2
:0C405C0009737470F09009747462F090A5
:0C4068000975742FF09009767463F090D5
:0C4074000977746FF09009787472F09076
:0C40800009797465F090097A745FF09083
:0C408C00097B7475F090097C7461F09061
:0C409800097D7472F090097E7474F09041
:0C40A400097F745FF09009807461F09057
:0C40B00009817470F09009827462F09035
:0C40BC000983742EF09009847463F09066
:0E40C80009857400F090058074F4F0E4A3F014
:0A40D600A3F0A3F075825F75830963
:0E40E00075F000C002C003C004C005121BCC66
:0840EE00D005D004D003D0027C
:0E40F600900931E0FEA3E0FFA3E0F8BE000950
:09410400BF0006B80003024231BD
:06410D00ED6003024231E7
:0D411300900934E4F0A3F0A3F0A3F08805B8
:0E412000C006C007C005900934E0F8A3E0F91E
:0E412E00A3E0FDA3E0FEE5002502F8E5013563
:0E413C0003F98C05888289838DF01271F6F8E4
:0C414A007D00B80007BD00047401800176
:01415600E484
:0B415700D005D007D006600302423103
:0E4162008E828F838DF01271F6F8A31271F623
:0E417000F974102500F874003501F988828971
:0E417E0083C002C003C004C005C006C0071203
:0E418C001C7DA882D007D006D005D004D00339
:0D419A00D00279005300017900E8700302A3
:0241A700416273
:0C41A9008E828F838DF01271F6F54EA30C
:0C41B5001271F6F54FC006C007C005905F
:0841C1000934E0F550A3E0F51C
:0841C90051A3E0F552A3E0F55B
:0741D10053E5502502F9E55A
:0C41D800513503FD8C0689828D838EF02A
:0A41E4001271F6F990059DE9F085CF
:0A41EE004E82854F83C002C003C05B
:0E41F80004C005C006C007121C6FD007D00619
:0E420600D005D004D003D002900934740125F5
:0A42140050F074003551A3F074005F
:0A421E003552A3F074003553A3F0ED
:09422800D005D007D006024120A8
:01423100226A
:0E423200AAF0AB83E582900986F0A3EBF0A31F
:0E424000EAF090098974FFF0900986E0FAA375
:0E424E00E0FBA3E0FCBA0008BB0005BC0002C8
:02425C008003DD
:03425E00024369AF
:0D42610090098A742EF090098B742EF09055
:0C426E00098C742FF090098D7464F0909E
:0C427A00098E7472F090098F7469F09046
:0C42860009907476F09009917465F09036
:0C42920009927472F09009937473F0901C
:0C429E000994742FF09009957443F0907F
:0C42AA000996746FF09009977472F09000
:0C42B60009987465F09009997455F09017
:0C42C200099A7441F090099B7452F0902E
:0C42CE00099C7454F090099D7461F090FC
:0C42DA00099E7470F090099F7462F090CF
:0C42E60009A0742FF09009A17463F090FF
:0C42F20009A2746FF09009A37472F090A0
:0C42FE0009A47465F09009A5745FF090AD
:0C430A0009A67475F09009A77461F0908A
:0C43160009A87472F09009A97474F0906A
:0C43220009AA745FF09009AB7461F09080
:0C432E0009AC7470F09009AD7462F0905E
:0C433A0009AE742EF09009AF7463F0908F
:0E43460009B07400F09005807414F0A37401A7
:0C435400F0A37400F0A37400F075828ADE
:0943600075830975F000121BCCF5
:0E436900900986E0FAA3E0FBA3E0FCBA00098D
:09437700BB0006BC00030243ADCB
:0E43800074022502FA74003503FB8A828B83D7
:0E438E008CF01271F6FD53051CED0303543F35
:0E439C00FD900989EDF08A828B838CF074000D
:0343AA001270A4EA
:0743AD00900989E0FA8A8201
:0143B40022E6
:0E43B500AAF0AB83E5829009BFF0A3EBF0A362
:0E43C300EAF09009BFE0FAA3E0FBA3E0FC9053
:0E43D10009B1E0FDA3E0FEA3E0FFEAB5050A96
:0A43DF00EBB50606ECB507028003FB
:0343E9000244D1BA
:0D43EC009009C2742EF09009C3742EF09059
:0C43F90009C4742FF09009C57464F090A2
:0C44050009C67472F09009C77469F09049
:0C44110009C87476F09009C97465F09039
:0C441D0009CA7472F09009CB7473F0901F
:0C44290009CC742FF09009CD7443F09082
:0C44350009CE746FF09009CF7472F09003
:0C44410009D07465F09009D17454F0901B
:0C444D0009D27469F09009D3746DF090EE
:0C44590009D47465F09009D57472F090DD
:0C44650009D6742FF09009D77463F09012
:0C44710009D8746FF09009D97472F090B3
:0C447D0009DA7465F09009DB745FF090C0
:0C44890009DC7474F09009DD7469F09097
:0C44950009DE746DF09009DF7465F09092
:0C44A10009E07472F09009E1742EF090B4
:0C44AD0009E27463F09009E37400F090E1
:0E44B90005807421F0E4A3F0A3F0A3F0758257
:0844C700C275830975F00012B3
:0244CF001BCC04
:0E44D1009009B7E0FAA3E0FBA3E0FCA3E0FD36
:0E44DF00C374099A74009B74009C74009D4085
:0444ED00030245E69B
:0D44F1009009E4742EF09009E5742EF0900F
:0C44FE0009E6742FF09009E77464F09058
:0C450A0009E87472F09009E97469F090FF
:0C45160009EA7476F09009EB7465F090EF
:0C45220009EC7472F09009ED7473F090D5
:0C452E0009EE742FF09009EF7443F09038
:0C453A0009F0746FF09009F17472F090B9
:0C45460009F27465F09009F37454F090D1
:0C45520009F47469F09009F5746DF090A4
:0C455E0009F67465F09009F77472F09093
:0C456A0009F8742FF09009F97463F090C8
:0C45760009FA746FF09009FB7472F09069
:0C45820009FC7465F09009FD745FF09076
:0C458E0009FE7474F09009FF7469F0904D
:0C459A000A00746DF0900A017465F09046
:0C45A6000A027472F0900A03742EF09068
:0C45B2000A047463F0900A057400F09095
:0E45BE0005807422F0E4A3F0A3F0A3F0758250
:0A45CC00E475830975F000C002C019
:0E45D60003C004C005121BCCD005D004D003D6
:0245E400D00203
:0945E6009009BBE0F554A3E0F5D7
:0845EF0055A3E0F556A3E0F529
:0645F70057E554700EE5CB
:0845FD0055700AE5567006E551
:05460500577002800364
:03460A0002470262
:0D460D00900A06742EF0900A07742EF090AB
:0C461A000A08742FF0900A097464F090F4
:0C4626000A0A7472F0900A0B7469F0909C
:0C4632000A0C7476F0900A0D7465F0908C
:0C463E000A0E7472F0900A0F7473F09072
:0C464A000A10742FF0900A117443F090D5
:0C4656000A12746FF0900A137472F09056
:0C4662000A147465F0900A157454F0906E
:0C466E000A167469F0900A17746DF09041
:0C467A000A187465F0900A197472F09030
:0C4686000A1A742FF0900A1B7463F09065
:0C4692000A1C746FF0900A1D7472F09006
:0C469E000A1E7465F0900A1F745FF09013
:0C46AA000A207474F0900A217469F090EA
:0C46B6000A22746DF0900A237465F090E5
:0C46C2000A247472F0900A25742EF09007
:0C46CE000A267463F0900A277400F09034
:0E46DA0005807423F0E4A3F0A3F0A3F0758232
:0A46E8000675830A75F000C002C0D9
:0E46F20003C004C005121BCCD005D004D003B9
:02470000D002E5
:0E4702009009BFE0FEA3E0FFA3E0F89009B429
:0A471000E0F558A3E0F5598E828F02
:0A471A008388F0E5581270A4A3E5AF
:07472400591270A47408256E
:08472B0058FE74003559FF909F
:0E47330005A27401F09005A37402F0E4A3F057
:0E474100A3F0A3F09005A7E4F0A3F0A3F0A36B
:0E474F00F08E828F83C002C003C004C005C07C
:0E475D0006C007121C90D007D006D005D0046D
:0E476B00D003D0029005A27400F09005A37454
:0E47790001F0E4A3F0A3F0A3F09005A7E4F094
:0E478700A3F0A3F0A3F08E828F83C002C003C4
:0E479500C004C005121C90D005D004D003D083
:0A47A3000274102558FE7400355909
:0E47AD00FF90059E7401F0E4A3F0A3F0A3F0CA
:0D47BB008E828F83C002C003C004C00512AF
:0D47C8001C38D005D004D003D002740C259D
:0847D50058FE74003559FF90F5
:0E47DD00059EEAF0A3EBF0A3ECF0A3EDF08E46
:0A47EB00828F83121C3890059EE5B2
:0847F50054F0A3E555F0A3E523
:0747FD0056F0A3E557F0851B
:0648040058828559831261
:0B480A001C389009B6E0FAEA600302D7
:02481500484910
:0A48170074082558FA74003559FBA7
:0E4821009005A27402F09005A37404F0E4A3C5
:0E482F00F0A3F0A3F09005A7E4F0A3F0A3F02F
:0C483D00A3F08A828B83121C9002487A40
:0A48490074082558FA74003559FB75
:0E4853009005A27402F09005A37404F0E4A393
:0E486100F0A3F0A3F09005A77401F0E4A3F01B
:0B486F00A3F0A3F08A828B83121C9040
:01487A00221B
:0E487B00AAF0AB83E582900A28F0A3EBF0A32D
:0E488900EAF0900A28E0FAA3E0FBA3E0FC901E
:0E48970009B1E0FDA3E0FEA3E0FFEAB5050ACB
:0A48A500EBB50606ECB50702800330
:0348AF0002499724
:0D48B200900A2B742EF0900A2C742EF090BA
:0C48BF000A2D742FF0900A2E7464F09003
:0C48CB000A2F7472F0900A307469F090AB
:0C48D7000A317476F0900A327465F0909B
:0C48E3000A337472F0900A347473F09081
:0C48EF000A35742FF0900A367443F090E4
:0C48FB000A37746FF0900A387472F09065
:0C4907000A397465F0900A3A7454F0907C
:0C4913000A3B7469F0900A3C746DF0904F
:0C491F000A3D7465F0900A3E7472F0903E
:0C492B000A3F742FF0900A407463F09073
:0C4937000A41746FF0900A427472F09014
:0C4943000A437465F0900A44745FF09021
:0C494F000A457474F0900A467469F090F8
:0C495B000A47746DF0900A487465F090F3
:0C4967000A497472F0900A4A742EF09015
:0C4973000A4B7463F0900A4C7400F09042
:0E497F000580744AF0E4A3F0A3F0A3F0758263
:08498D002B75830A75F000127E
:024995001BCC39
:0E499700900A28E0FAA3E0FBA3E0FC8A828BE2
:0E49A500838CF01271F6FAA31271F6FB7408FF
:0E49B3002502FA74003503FB9005A27400F093
:0E49C1009005A37401F0E4A3F0A3F0A3F0901E
:0E49CF0005A77401F0E4A3F0A3F0A3F08A8220
:0549DD008B83121C9009
:0149E20022B2
:0E49E300AAF0AB83E582900A4DF0A3EBF0A39F
:0E49F100EAF0900A4DE0FAA3E0FBA3E0FC9090
:0E49FF0009B1E0FDA3E0FEA3E0FFEAB5050A62
:0A4A0D00EBB50606ECB507028003C6
:034A1700024AFF51
:0D4A1A00900A50742EF0900A51742EF09006
:0C4A27000A52742FF0900A537464F0904F
:0C4A33000A547472F0900A557469F090F7
:0C4A3F000A567476F0900A577465F090E7
:0C4A4B000A587472F0900A597473F090CD
:0C4A57000A5A742FF0900A5B7443F09030
:0C4A63000A5C746FF0900A5D7472F090B1
:0C4A6F000A5E7465F0900A5F7454F090C9
:0C4A7B000A607469F0900A61746DF0909C
:0C4A87000A627465F0900A637472F0908B
:0C4A93000A64742FF0900A657463F090C0
:0C4A9F000A66746FF0900A677472F09061
:0C4AAB000A687465F0900A69745FF0906E
:0C4AB7000A6A7474F0900A6B7469F09045
:0C4AC3000A6C746DF0900A6D7465F09040
:0C4ACF000A6E7472F0900A6F742EF09062
:0C4ADB000A707463F0900A717400F0908F
:0E4AE70005807459F0E4A3F0A3F0A3F07582EB
:084AF5005075830A75F00012F0
:024AFD001BCCD0
:0E4AFF00900A4DE0FAA3E0FBA3E0FC8A828B54
:0E4B0D00838CF01271F6FAA31271F6FB740895
:0E4B1B002502FA74003503FB9005A27400F029
:0E4B29009005A37401F0E4A3F0A3F0A3F090B4
:0E4B370005A7E4F0A3F0A3F0A3F08A828B831D
:034B4500121C90AF
:014B4800224A
:0E4B4900AAF0AB83E582900A72F0A3EBF0A312
:0E4B5700EAF0900A72E0FAA3E0FBA3E0FC9003
:0E4B650009B1E0FDA3E0FEA3E0FFEAB5050AFA
:0A4B7300EBB50606ECB5070280035F
:034B7D00024C6582
:0D4B8000900A75742EF0900A76742EF09055
:0C4B8D000A77742FF0900A787464F0909E
:0C4B99000A797472F0900A7A7469F09046
:0C4BA5000A7B7476F0900A7C7465F09036
:0C4BB1000A7D7472F0900A7E7473F0901C
:0C4BBD000A7F742FF0900A807443F0907F
:0C4BC9000A81746FF0900A827472F09000
:0C4BD5000A837465F0900A847454F09018
:0C4BE1000A857469F0900A86746DF090EB
:0C4BED000A877465F0900A887472F090DA
:0C4BF9000A89742FF0900A8A7463F0900F
:0C4C05000A8B746FF0900A8C7472F090AF
:0C4C11000A8D7465F0900A8E745FF090BC
:0C4C1D000A8F7474F0900A907469F09093
:0C4C29000A91746DF0900A927465F0908E
:0C4C35000A937472F0900A94742EF090B0
:0C4C41000A957463F0900A967400F090DD
:0E4C4D0005807469F0E4A3F0A3F0A3F0758273
:084C5B007575830A75F0001263
:024C63001BCC68
:0E4C6500900A72E0FAA3E0FBA3E0FC8A828BC7
:0E4C7300838CF01271F6FAA31271F6FB74082E
:0E4C81002502FA74003503FB9005A27401F0C1
:0E4C8F009005A37402F0E4A3F0A3F0A3F0904C
:0E4C9D0005A77401F0E4A3F0A3F0A3F08A824F
:054CAB008B83121C9038
:014CB00022E1
:0E4CB100AAF0AB83E582900A97F0A3EBF0A384
:0E4CBF00EAF0900A97E0FAA3E0FBA3E0FC9075
:0E4CCD0009B1E0FDA3E0FEA3E0FFEAB5050A91
:0A4CDB00EBB50606ECB507028003F6
:034CE500024DCDB0
:0D4CE800900A9A742EF0900A9B742EF090A2
:0C4CF5000A9C742FF0900A9D7464F090EB
:0C4D01000A9E7472F0900A9F7469F09092
:0C4D0D000AA07476F0900AA17465F09082
:0C4D19000AA27472F0900AA37473F09068
:0C4D25000AA4742FF0900AA57443F090CB
:0C4D31000AA6746FF0900AA77472F0904C
:0C4D3D000AA87465F0900AA97454F09064
:0C4D49000AAA7469F0900AAB746DF09037
:0C4D55000AAC7465F0900AAD7472F09026
:0C4D61000AAE742FF0900AAF7463F0905B
:0C4D6D000AB0746FF0900AB17472F090FC
:0C4D79000AB27465F0900AB3745FF09009
:0C4D85000AB47474F0900AB57469F090E0
:0C4D91000AB6746DF0900AB77465F090DB
:0C4D9D000AB87472F0900AB9742EF090FD
:0C4DA9000ABA7463F0900ABB7400F0902A
:0E4DB50005807478F0E4A3F0A3F0A3F07582FB
:084DC3009A75830A75F00012D5
:024DCB001BCCFF
:0E4DCD00900A97E0FAA3E0FBA3E0FC8A828B39
:0E4DDB00838CF01271F6FAA31271F6FB7410BD
:0E4DE9002502FA74003503FB90059E7401F05C
:0E4DF700E4A3F0A3F0A3F08A828B83121C3891
:014E0500228A
:0E4E0600AAF0AB83E582900ABCF0A3EBF0A308
:0E4E1400EAF0900ABCE0FAA3E0FBA3E0FC90F9
:0E4E220009B1E0FDA3E0FEA3E0FFEAB5050A3A
:0A4E3000EBB50606ECB5070280039F
:034E3A00024F2202
:0D4E3D00900ABF742EF0900AC0742EF09001
:0C4E4A000AC1742FF0900AC27464F0904A
:0C4E56000AC37472F0900AC47469F090F2
:0C4E62000AC57476F0900AC67465F090E2
:0C4E6E000AC77472F0900AC87473F090C8
:0C4E7A000AC9742FF0900ACA7443F0902B
:0C4E86000ACB746FF0900ACC7472F090AC
:0C4E92000ACD7465F0900ACE7454F090C4
:0C4E9E000ACF7469F0900AD0746DF09097
:0C4EAA000AD17465F0900AD27472F09086
:0C4EB6000AD3742FF0900AD47463F090BB
:0C4EC2000AD5746FF0900AD67472F0905C
:0C4ECE000AD77465F0900AD8745FF09069
:0C4EDA000AD97474F0900ADA7469F09040
:0C4EE6000ADB746DF0900ADC7465F0903B
:0C4EF2000ADD7472F0900ADE742EF0905D
:0C4EFE000ADF7463F0900AE07400F0908A
:0E4F0A0005807488F0E4A3F0A3F0A3F0758294
:084F1800BF75830A75F0001259
:024F20001BCCA8
:0E4F2200900ABCE0FAA3E0FBA3E0FC8A828BBD
:0E4F3000838CF01271F6FAA31271F6FB740472
:0D4F3E002502FA74003503FB8A828B831272
:0E4F4B001C2CAA82AB83ACF0FD8A828B838C77
:024F5900F0ED79
:014F5B002233
:0E4F5C00AAF0AB83E582900AE5F0A3EBF0A388
:0E4F6A00EAF0900AE5E0FAA3E0FBA3E0FC9079
:0E4F780009B1E0FDA3E0FEA3E0FFEAB5050AE3
:0A4F8600EBB50606ECB50702800348
:034F900002507854
:0D4F9300900AE8742EF0900AE9742EF09058
:0C4FA0000AEA742FF0900AEB7464F090A1
:0C4FAC000AEC7472F0900AED7469F09049
:0C4FB8000AEE7476F0900AEF7465F09039
:0C4FC4000AF07472F0900AF17473F0901F
